:100000000C942A000C94BA000C943C000C943C0014
:100010000C943C000C943C000C943C000C943C0070
:100020000C943C000C943C000C943C000C943C0060
:100030000C943C000C943C000C943C000C943C0050
:100040000C943C000C943C000C943C000C943C0040
:100050000C943C0011241FBECFE5D8E0DEBFCDBF1D
:1000600020E0A0E6B0E001C01D92A336B207E1F7A0
:100070000E946B010C94D0020C9400000E94AE020E
:100080000E94BC0260E081E40E94500161E081E4D2
:100090000E94500162E081E40E94500160E082E42D
:1000A0000E94500161E082E40E94500162E082E41B
:1000B0000E94500162E084E40E944C010E949D0273
:1000C000089580916100811114C060E081E40E9474
:1000D00054010E94BF020E94CC020E94C70260E04D
:1000E00081E40E9458011092600081E080936100D9
:1000F000E8CF80916100813019F50CC061E081E4A6
:100100000E945F01CF5F80916200813021F41092E4
:10011000620003C0C0E0C43188F361E081E40E9462
:10012000580180916000811104C082E080936100D9
:10013000C8CF80916000823021F610926100C1CF5B
:1001400080916100823009F0BCCF62E081E40E94BE
:1001500054010E94BF020E94CC020E94C70262E0CA
:1001600081E40E94580182E08093600081E08093E6
:100170006100A7CF1F920F920FB60F9211242F93F9
:100180003F934F935F936F937F938F939F93AF931F
:10019000BF93CF93EF93FF930E94AA0280916100D7
:1001A00081110DC062E082E40E9454010E94BF02EE
:1001B0000E94CC0262E082E40E94580159C0809102
:1001C0006100823029F080916100813009F050C0D7
:1001D00061E081E40E94580162E081E40E945801DC
:1001E00060E082E40E945401C0E00AC065E08AEF4A
:1001F0000E94B00208B600FEFDCF0E94B702CF5F9A
:10020000C230A0F360E082E40E945801C0E009C05F
:1002100061E081E40E945F0161E082E40E945F018D
:10022000CF5FCA30A8F365E08AEF0E94B00261E0B8
:1002300081E40E94580161E082E40E94580162E07A
:1002400082E40E94540160E081E40E9454010E9413
:10025000BF020E94CC0262E082E40E94580160E08A
:1002600081E40E9458011092600081E08093610057
:100270000E94A602FF91EF91CF91BF91AF919F9104
:100280008F917F916F915F914F913F912F910F903F
:100290000FBE0F901F90189540E00E9472010895C4
:1002A00041E00E947201089541E00E94EC0108952E
:1002B00040E00E94EC0108950E94660208950E94A9
:1002C0005C0165E08AEF0E94B00208B600FEFDCF37
:1002D0000E94B70208950E943E000E94610080E0E3
:1002E00090E00895823431F118F4813439F00895A2
:1002F0008334E1F1843409F454C0089541110CC0F1
:100300002AB381E090E002C0880F991F6A95E2F756
:10031000809582238ABB0895413009F05CC02AB3DE
:1003200081E090E002C0880F991F6A95E2F7822B66
:100330008ABB089541110CC027B381E090E002C050
:10034000880F991F6A95E2F78095822387BB0895ED
:10035000413009F040C027B381E090E002C0880F2F
:10036000991F6A95E2F7822B87BB089541110CC053
:1003700024B381E090E002C0880F991F6A95E2F7EC
:100380008095822384BB0895413029F524B381E010
:1003900090E002C0880F991F6A95E2F7822B84BB18
:1003A000089541110CC021B381E090E002C0880F94
:1003B000991F6A95E2F78095822381BB08954130A9
:1003C00051F421B381E090E002C0880F991F6A9533
:1003D000E2F7822B81BB0895823431F118F4813425
:1003E00039F008958334E1F1843409F454C0089558
:1003F00041110CC02BB381E090E002C0880F991F1F
:100400006A95E2F7809582238BBB0895413009F00D
:100410005CC02BB381E090E002C0880F991F6A9501
:10042000E2F7822B8BBB089541110CC028B381E009
:1004300090E002C0880F991F6A95E2F780958223A9
:1004400088BB0895413009F040C028B381E090E0B6
:1004500002C0880F991F6A95E2F7822B88BB089526
:1004600041110CC025B381E090E002C0880F991FB4
:100470006A95E2F78095822385BB0895413029F57E
:1004800025B381E090E002C0880F991F6A95E2F7DA
:10049000822B85BB089541110CC022B381E090E00E
:1004A00002C0880F991F6A95E2F78095822382BB6C
:1004B0000895413051F422B381E090E002C0880FEA
:1004C000991F6A95E2F7822B82BB08958234A1F0CE
:1004D00018F4813431F008958334C9F0843411F173
:1004E00008952BB381E090E002C0880F991F6A95B0
:1004F000E2F782278BBB089528B381E090E002C029
:10050000880F991F6A95E2F7822788BB089525B363
:1005100081E090E002C0880F991F6A95E2F7822778
:1005200085BB089522B381E090E002C0880F991F37
:100530006A95E2F7822782BB08958FB780688FBFE4
:1005400082E085BF8BB780648BBF08958BB78064D2
:100550008BBF08958BB78F7B8BBF089513BE089513
:1005600099E0981B92BF83B7682B63BF089513BEB1
:1005700088B7816088BF08951FBC1EBC08958DEEAA
:100580009CEE9DBD8CBD8EB585608EBD08951EBC54
:1005900088B7846088BF089508B602FEFDCF08952D
:0405A000F894FFCFFD
:00000001FF
